{
  "contractName": "Hrm",
  "abi": [
    {
      "constant": true,
      "inputs": [],
      "name": "name",
      "outputs": [
        {
          "name": "",
          "type": "string"
        }
      ],
      "payable": false,
      "stateMutability": "view",
      "type": "function",
      "signature": "0x06fdde03"
    },
    {
      "constant": true,
      "inputs": [],
      "name": "payrollCount",
      "outputs": [
        {
          "name": "",
          "type": "uint256"
        }
      ],
      "payable": false,
      "stateMutability": "view",
      "type": "function",
      "signature": "0x0a883790"
    },
    {
      "constant": true,
      "inputs": [],
      "name": "recruitmentCount",
      "outputs": [
        {
          "name": "",
          "type": "uint256"
        }
      ],
      "payable": false,
      "stateMutability": "view",
      "type": "function",
      "signature": "0x12d3a243"
    },
    {
      "constant": true,
      "inputs": [
        {
          "name": "",
          "type": "uint256"
        }
      ],
      "name": "eretirementRecords",
      "outputs": [
        {
          "name": "id",
          "type": "uint256"
        },
        {
          "name": "employeename",
          "type": "string"
        },
        {
          "name": "workstartdate",
          "type": "string"
        },
        {
          "name": "workenddate",
          "type": "string"
        },
        {
          "name": "lastlevel",
          "type": "string"
        },
        {
          "name": "benefitsamount",
          "type": "string"
        },
        {
          "name": "lastworkdate",
          "type": "string"
        }
      ],
      "payable": false,
      "stateMutability": "view",
      "type": "function",
      "signature": "0x416a9ab5"
    },
    {
      "constant": true,
      "inputs": [
        {
          "name": "",
          "type": "uint256"
        }
      ],
      "name": "leaveRecords",
      "outputs": [
        {
          "name": "id",
          "type": "uint256"
        },
        {
          "name": "employeename",
          "type": "string"
        },
        {
          "name": "leavetype",
          "type": "string"
        },
        {
          "name": "startdate",
          "type": "string"
        },
        {
          "name": "enddate",
          "type": "string"
        }
      ],
      "payable": false,
      "stateMutability": "view",
      "type": "function",
      "signature": "0x43518698"
    },
    {
      "constant": true,
      "inputs": [
        {
          "name": "",
          "type": "uint256"
        }
      ],
      "name": "employees",
      "outputs": [
        {
          "name": "id",
          "type": "uint256"
        },
        {
          "name": "firstname",
          "type": "string"
        },
        {
          "name": "lastname",
          "type": "string"
        },
        {
          "name": "phonenumber",
          "type": "string"
        },
        {
          "name": "location",
          "type": "string"
        },
        {
          "name": "position",
          "type": "string"
        },
        {
          "name": "department",
          "type": "string"
        },
        {
          "name": "owner",
          "type": "address"
        },
        {
          "name": "isactive",
          "type": "bool"
        }
      ],
      "payable": false,
      "stateMutability": "view",
      "type": "function",
      "signature": "0x4739326b"
    },
    {
      "constant": true,
      "inputs": [],
      "name": "leaveCount",
      "outputs": [
        {
          "name": "",
          "type": "uint256"
        }
      ],
      "payable": false,
      "stateMutability": "view",
      "type": "function",
      "signature": "0x65871668"
    },
    {
      "constant": true,
      "inputs": [
        {
          "name": "",
          "type": "uint256"
        }
      ],
      "name": "payrollRecords",
      "outputs": [
        {
          "name": "id",
          "type": "uint256"
        },
        {
          "name": "employeename",
          "type": "string"
        },
        {
          "name": "employeelevel",
          "type": "string"
        },
        {
          "name": "amount",
          "type": "string"
        },
        {
          "name": "benefitsamount",
          "type": "string"
        },
        {
          "name": "payday",
          "type": "string"
        }
      ],
      "payable": false,
      "stateMutability": "view",
      "type": "function",
      "signature": "0x70ac9067"
    },
    {
      "constant": true,
      "inputs": [],
      "name": "eretirementCount",
      "outputs": [
        {
          "name": "",
          "type": "uint256"
        }
      ],
      "payable": false,
      "stateMutability": "view",
      "type": "function",
      "signature": "0x865dc325"
    },
    {
      "constant": true,
      "inputs": [],
      "name": "employeeCount",
      "outputs": [
        {
          "name": "",
          "type": "uint256"
        }
      ],
      "payable": false,
      "stateMutability": "view",
      "type": "function",
      "signature": "0x9047bf58"
    },
    {
      "constant": true,
      "inputs": [
        {
          "name": "",
          "type": "uint256"
        }
      ],
      "name": "recruitmentRecords",
      "outputs": [
        {
          "name": "id",
          "type": "uint256"
        },
        {
          "name": "fullname",
          "type": "string"
        },
        {
          "name": "position",
          "type": "string"
        },
        {
          "name": "age",
          "type": "string"
        },
        {
          "name": "homeaddress",
          "type": "string"
        },
        {
          "name": "currentcompany",
          "type": "string"
        },
        {
          "name": "currentposition",
          "type": "string"
        }
      ],
      "payable": false,
      "stateMutability": "view",
      "type": "function",
      "signature": "0xc507d5ad"
    },
    {
      "inputs": [],
      "payable": false,
      "stateMutability": "nonpayable",
      "type": "constructor",
      "signature": "constructor"
    },
    {
      "anonymous": false,
      "inputs": [
        {
          "indexed": false,
          "name": "id",
          "type": "uint256"
        },
        {
          "indexed": false,
          "name": "firstname",
          "type": "string"
        },
        {
          "indexed": false,
          "name": "lastname",
          "type": "string"
        },
        {
          "indexed": false,
          "name": "phonenumber",
          "type": "string"
        },
        {
          "indexed": false,
          "name": "location",
          "type": "string"
        },
        {
          "indexed": false,
          "name": "position",
          "type": "string"
        },
        {
          "indexed": false,
          "name": "department",
          "type": "string"
        },
        {
          "indexed": false,
          "name": "owner",
          "type": "address"
        },
        {
          "indexed": false,
          "name": "isactive",
          "type": "bool"
        }
      ],
      "name": "EmployeeCreated",
      "type": "event",
      "signature": "0x918774abefc1c8609c701e0d5ddcf5afa30284731b0b6b7e6c43e42cb0b3a5f2"
    },
    {
      "anonymous": false,
      "inputs": [
        {
          "indexed": false,
          "name": "id",
          "type": "uint256"
        },
        {
          "indexed": false,
          "name": "employeename",
          "type": "string"
        },
        {
          "indexed": false,
          "name": "leavetype",
          "type": "string"
        },
        {
          "indexed": false,
          "name": "startdate",
          "type": "string"
        },
        {
          "indexed": false,
          "name": "enddate",
          "type": "string"
        }
      ],
      "name": "LeaveCreated",
      "type": "event",
      "signature": "0x2b093ce5554853c2062221a5f378e7465205c6a307467f330ded4f312b88eecb"
    },
    {
      "anonymous": false,
      "inputs": [
        {
          "indexed": false,
          "name": "id",
          "type": "uint256"
        },
        {
          "indexed": false,
          "name": "employeename",
          "type": "string"
        },
        {
          "indexed": false,
          "name": "employeelevel",
          "type": "string"
        },
        {
          "indexed": false,
          "name": "amount",
          "type": "string"
        },
        {
          "indexed": false,
          "name": "benefitsamount",
          "type": "string"
        },
        {
          "indexed": false,
          "name": "payday",
          "type": "string"
        }
      ],
      "name": "PayrollCreated",
      "type": "event",
      "signature": "0x71902161f4524091766f3fe31b1c10fb6ada7a9829732aaf1655661846f51cca"
    },
    {
      "anonymous": false,
      "inputs": [
        {
          "indexed": false,
          "name": "id",
          "type": "uint256"
        },
        {
          "indexed": false,
          "name": "fullname",
          "type": "string"
        },
        {
          "indexed": false,
          "name": "position",
          "type": "string"
        },
        {
          "indexed": false,
          "name": "age",
          "type": "string"
        },
        {
          "indexed": false,
          "name": "homeaddress",
          "type": "string"
        },
        {
          "indexed": false,
          "name": "currentcompany",
          "type": "string"
        },
        {
          "indexed": false,
          "name": "currentposition",
          "type": "string"
        }
      ],
      "name": "RecruitmentCreated",
      "type": "event",
      "signature": "0xdfe5c86db4c5766dcde93dada9eed5a62ed74f48b088d9d9e9bc515a4e6857bb"
    },
    {
      "anonymous": false,
      "inputs": [
        {
          "indexed": false,
          "name": "id",
          "type": "uint256"
        },
        {
          "indexed": false,
          "name": "employeename",
          "type": "string"
        },
        {
          "indexed": false,
          "name": "workstartdate",
          "type": "string"
        },
        {
          "indexed": false,
          "name": "workenddate",
          "type": "string"
        },
        {
          "indexed": false,
          "name": "lastlevel",
          "type": "string"
        },
        {
          "indexed": false,
          "name": "benefitsamount",
          "type": "string"
        },
        {
          "indexed": false,
          "name": "lastworkdate",
          "type": "string"
        }
      ],
      "name": "ERetirementCreated",
      "type": "event",
      "signature": "0xc6c341eaadcd5ce6a1dd918367b55b777ce628177ea4b82d731c13cdfa74d81d"
    },
    {
      "constant": false,
      "inputs": [
        {
          "name": "_firstname",
          "type": "string"
        },
        {
          "name": "_lastname",
          "type": "string"
        },
        {
          "name": "_phonenumber",
          "type": "string"
        },
        {
          "name": "_location",
          "type": "string"
        },
        {
          "name": "_position",
          "type": "string"
        },
        {
          "name": "_department",
          "type": "string"
        }
      ],
      "name": "createEmployee",
      "outputs": [],
      "payable": false,
      "stateMutability": "nonpayable",
      "type": "function",
      "signature": "0x2bf124ca"
    },
    {
      "constant": false,
      "inputs": [
        {
          "name": "_employeename",
          "type": "string"
        },
        {
          "name": "_leavetype",
          "type": "string"
        },
        {
          "name": "_startdate",
          "type": "string"
        },
        {
          "name": "_enddate",
          "type": "string"
        }
      ],
      "name": "createLeave",
      "outputs": [],
      "payable": false,
      "stateMutability": "nonpayable",
      "type": "function",
      "signature": "0x313af54e"
    },
    {
      "constant": false,
      "inputs": [
        {
          "name": "_employeename",
          "type": "string"
        },
        {
          "name": "_employeelevel",
          "type": "string"
        },
        {
          "name": "_amount",
          "type": "string"
        },
        {
          "name": "_benefitsamount",
          "type": "string"
        },
        {
          "name": "_payday",
          "type": "string"
        }
      ],
      "name": "createPayroll",
      "outputs": [],
      "payable": false,
      "stateMutability": "nonpayable",
      "type": "function",
      "signature": "0x671e91dd"
    },
    {
      "constant": false,
      "inputs": [
        {
          "name": "_fullname",
          "type": "string"
        },
        {
          "name": "_position",
          "type": "string"
        },
        {
          "name": "_age",
          "type": "string"
        },
        {
          "name": "_homeaddress",
          "type": "string"
        },
        {
          "name": "_currentcompany",
          "type": "string"
        },
        {
          "name": "_currentposition",
          "type": "string"
        }
      ],
      "name": "createRecruitment",
      "outputs": [],
      "payable": false,
      "stateMutability": "nonpayable",
      "type": "function",
      "signature": "0xb176cfe5"
    },
    {
      "constant": false,
      "inputs": [
        {
          "name": "_employeename",
          "type": "string"
        },
        {
          "name": "_workstartdate",
          "type": "string"
        },
        {
          "name": "_workendate",
          "type": "string"
        },
        {
          "name": "_lastlevel",
          "type": "string"
        },
        {
          "name": "_benefitsamount",
          "type": "string"
        },
        {
          "name": "_lastworkdate",
          "type": "string"
        }
      ],
      "name": "createEretirement",
      "outputs": [],
      "payable": false,
      "stateMutability": "nonpayable",
      "type": "function",
      "signature": "0xa4e93f63"
    }
  ],
  "bytecode": "0x6080604052600060015560006002556000600355600060045560006005553480156200002a57600080fd5b506040805190810160405280600f81526020017f48524d206170706c69636174696f6e000000000000000000000000000000000081525060009080519060200190620000789291906200007f565b506200012e565b828054600181600116156101000203166002900490600052602060002090601f016020900481019282601f10620000c257805160ff1916838001178555620000f3565b82800160010185558215620000f3579182015b82811115620000f2578251825591602001919060010190620000d5565b5b50905062000102919062000106565b5090565b6200012b91905b80821115620001275760008160009055506001016200010d565b5090565b90565b614746806200013e6000396000f3fe6080604052600436106100e6576000357c0100000000000000000000000000000000000000000000000000000000900463ffffffff16806306fdde03146100eb5780630a8837901461017b57806312d3a243146101a65780632bf124ca146101d1578063313af54e1461058c578063416a9ab5146108195780634351869814610af05780634739326b14610cef5780636587166814611004578063671e91dd1461102f57806370ac906714611353578063865dc325146115be5780639047bf58146115e9578063a4e93f6314611614578063b176cfe5146119cf578063c507d5ad14611d8a575b600080fd5b3480156100f757600080fd5b50610100612061565b6040518080602001828103825283818151815260200191508051906020019080838360005b83811015610140578082015181840152602081019050610125565b50505050905090810190601f16801561016d5780820380516001836020036101000a031916815260200191505b509250505060405180910390f35b34801561018757600080fd5b506101906120ff565b6040518082815260200191505060405180910390f35b3480156101b257600080fd5b506101bb612105565b6040518082815260200191505060405180910390f35b3480156101dd57600080fd5b5061058a600480360360c08110156101f457600080fd5b810190808035906020019064010000000081111561021157600080fd5b82018360208201111561022357600080fd5b8035906020019184600183028401116401000000008311171561024557600080fd5b91908080601f016020809104026020016040519081016040528093929190818152602001838380828437600081840152601f19601f820116905080830192505050505050509192919290803590602001906401000000008111156102a857600080fd5b8201836020820111156102ba57600080fd5b803590602001918460018302840111640100000000831117156102dc57600080fd5b91908080601f016020809104026020016040519081016040528093929190818152602001838380828437600081840152601f19601f8201169050808301925050505050505091929192908035906020019064010000000081111561033f57600080fd5b82018360208201111561035157600080fd5b8035906020019184600183028401116401000000008311171561037357600080fd5b91908080601f016020809104026020016040519081016040528093929190818152602001838380828437600081840152601f19601f820116905080830192505050505050509192919290803590602001906401000000008111156103d657600080fd5b8201836020820111156103e857600080fd5b8035906020019184600183028401116401000000008311171561040a57600080fd5b91908080601f016020809104026020016040519081016040528093929190818152602001838380828437600081840152601f19601f8201169050808301925050505050505091929192908035906020019064010000000081111561046d57600080fd5b82018360208201111561047f57600080fd5b803590602001918460018302840111640100000000831117156104a157600080fd5b91908080601f016020809104026020016040519081016040528093929190818152602001838380828437600081840152601f19601f8201169050808301925050505050505091929192908035906020019064010000000081111561050457600080fd5b82018360208201111561051657600080fd5b8035906020019184600183028401116401000000008311171561053857600080fd5b91908080601f016020809104026020016040519081016040528093929190818152602001838380828437600081840152601f19601f82011690508083019250505050505050919291929050505061210b565b005b34801561059857600080fd5b50610817600480360360808110156105af57600080fd5b81019080803590602001906401000000008111156105cc57600080fd5b8201836020820111156105de57600080fd5b8035906020019184600183028401116401000000008311171561060057600080fd5b91908080601f016020809104026020016040519081016040528093929190818152602001838380828437600081840152601f19601f8201169050808301925050505050505091929192908035906020019064010000000081111561066357600080fd5b82018360208201111561067557600080fd5b8035906020019184600183028401116401000000008311171561069757600080fd5b91908080601f016020809104026020016040519081016040528093929190818152602001838380828437600081840152601f19601f820116905080830192505050505050509192919290803590602001906401000000008111156106fa57600080fd5b82018360208201111561070c57600080fd5b8035906020019184600183028401116401000000008311171561072e57600080fd5b91908080601f016020809104026020016040519081016040528093929190818152602001838380828437600081840152601f19601f8201169050808301925050505050505091929192908035906020019064010000000081111561079157600080fd5b8201836020820111156107a357600080fd5b803590602001918460018302840111640100000000831117156107c557600080fd5b91908080601f016020809104026020016040519081016040528093929190818152602001838380828437600081840152601f19601f8201169050808301925050505050505091929192905050506125e1565b005b34801561082557600080fd5b506108526004803603602081101561083c57600080fd5b81019080803590602001909291905050506128e6565b6040518088815260200180602001806020018060200180602001806020018060200187810387528d818151815260200191508051906020019080838360005b838110156108ac578082015181840152602081019050610891565b50505050905090810190601f1680156108d95780820380516001836020036101000a031916815260200191505b5087810386528c818151815260200191508051906020019080838360005b838110156109125780820151818401526020810190506108f7565b50505050905090810190601f16801561093f5780820380516001836020036101000a031916815260200191505b5087810385528b818151815260200191508051906020019080838360005b8381101561097857808201518184015260208101905061095d565b50505050905090810190601f1680156109a55780820380516001836020036101000a031916815260200191505b5087810384528a818151815260200191508051906020019080838360005b838110156109de5780820151818401526020810190506109c3565b50505050905090810190601f168015610a0b5780820380516001836020036101000a031916815260200191505b50878103835289818151815260200191508051906020019080838360005b83811015610a44578082015181840152602081019050610a29565b50505050905090810190601f168015610a715780820380516001836020036101000a031916815260200191505b50878103825288818151815260200191508051906020019080838360005b83811015610aaa578082015181840152602081019050610a8f565b50505050905090810190601f168015610ad75780820380516001836020036101000a031916815260200191505b509d505050505050505050505050505060405180910390f35b348015610afc57600080fd5b50610b2960048036036020811015610b1357600080fd5b8101908080359060200190929190505050612cb8565b6040518086815260200180602001806020018060200180602001858103855289818151815260200191508051906020019080838360005b83811015610b7b578082015181840152602081019050610b60565b50505050905090810190601f168015610ba85780820380516001836020036101000a031916815260200191505b50858103845288818151815260200191508051906020019080838360005b83811015610be1578082015181840152602081019050610bc6565b50505050905090810190601f168015610c0e5780820380516001836020036101000a031916815260200191505b50858103835287818151815260200191508051906020019080838360005b83811015610c47578082015181840152602081019050610c2c565b50505050905090810190601f168015610c745780820380516001836020036101000a031916815260200191505b50858103825286818151815260200191508051906020019080838360005b83811015610cad578082015181840152602081019050610c92565b50505050905090810190601f168015610cda5780820380516001836020036101000a031916815260200191505b50995050505050505050505060405180910390f35b348015610cfb57600080fd5b50610d2860048036036020811015610d1257600080fd5b8101908080359060200190929190505050612f4e565b604051808a81526020018060200180602001806020018060200180602001806020018973ffffffffffffffffffffffffffffffffffffffff1673ffffffffffffffffffffffffffffffffffffffff1681526020018815151515815260200187810387528f818151815260200191508051906020019080838360005b83811015610dbe578082015181840152602081019050610da3565b50505050905090810190601f168015610deb5780820380516001836020036101000a031916815260200191505b5087810386528e818151815260200191508051906020019080838360005b83811015610e24578082015181840152602081019050610e09565b50505050905090810190601f168015610e515780820380516001836020036101000a031916815260200191505b5087810385528d818151815260200191508051906020019080838360005b83811015610e8a578082015181840152602081019050610e6f565b50505050905090810190601f168015610eb75780820380516001836020036101000a031916815260200191505b5087810384528c818151815260200191508051906020019080838360005b83811015610ef0578082015181840152602081019050610ed5565b50505050905090810190601f168015610f1d5780820380516001836020036101000a031916815260200191505b5087810383528b818151815260200191508051906020019080838360005b83811015610f56578082015181840152602081019050610f3b565b50505050905090810190601f168015610f835780820380516001836020036101000a031916815260200191505b5087810382528a818151815260200191508051906020019080838360005b83811015610fbc578082015181840152602081019050610fa1565b50505050905090810190601f168015610fe95780820380516001836020036101000a031916815260200191505b509f5050505050505050505050505050505060405180910390f35b34801561101057600080fd5b50611019613359565b6040518082815260200191505060405180910390f35b34801561103b57600080fd5b50611351600480360360a081101561105257600080fd5b810190808035906020019064010000000081111561106f57600080fd5b82018360208201111561108157600080fd5b803590602001918460018302840111640100000000831117156110a357600080fd5b91908080601f016020809104026020016040519081016040528093929190818152602001838380828437600081840152601f19601f8201169050808301925050505050505091929192908035906020019064010000000081111561110657600080fd5b82018360208201111561111857600080fd5b8035906020019184600183028401116401000000008311171561113a57600080fd5b91908080601f016020809104026020016040519081016040528093929190818152602001838380828437600081840152601f19601f8201169050808301925050505050505091929192908035906020019064010000000081111561119d57600080fd5b8201836020820111156111af57600080fd5b803590602001918460018302840111640100000000831117156111d157600080fd5b91908080601f016020809104026020016040519081016040528093929190818152602001838380828437600081840152601f19601f8201169050808301925050505050505091929192908035906020019064010000000081111561123457600080fd5b82018360208201111561124657600080fd5b8035906020019184600183028401116401000000008311171561126857600080fd5b91908080601f016020809104026020016040519081016040528093929190818152602001838380828437600081840152601f19601f820116905080830192505050505050509192919290803590602001906401000000008111156112cb57600080fd5b8201836020820111156112dd57600080fd5b803590602001918460018302840111640100000000831117156112ff57600080fd5b91908080601f016020809104026020016040519081016040528093929190818152602001838380828437600081840152601f19601f82011690508083019250505050505050919291929050505061335f565b005b34801561135f57600080fd5b5061138c6004803603602081101561137657600080fd5b81019080803590602001909291905050506136f5565b60405180878152602001806020018060200180602001806020018060200186810386528b818151815260200191508051906020019080838360005b838110156113e25780820151818401526020810190506113c7565b50505050905090810190601f16801561140f5780820380516001836020036101000a031916815260200191505b5086810385528a818151815260200191508051906020019080838360005b8381101561144857808201518184015260208101905061142d565b50505050905090810190601f1680156114755780820380516001836020036101000a031916815260200191505b50868103845289818151815260200191508051906020019080838360005b838110156114ae578082015181840152602081019050611493565b50505050905090810190601f1680156114db5780820380516001836020036101000a031916815260200191505b50868103835288818151815260200191508051906020019080838360005b838110156115145780820151818401526020810190506114f9565b50505050905090810190601f1680156115415780820380516001836020036101000a031916815260200191505b50868103825287818151815260200191508051906020019080838360005b8381101561157a57808201518184015260208101905061155f565b50505050905090810190601f1680156115a75780820380516001836020036101000a031916815260200191505b509b50505050505050505050505060405180910390f35b3480156115ca57600080fd5b506115d3613a29565b6040518082815260200191505060405180910390f35b3480156115f557600080fd5b506115fe613a2f565b6040518082815260200191505060405180910390f35b34801561162057600080fd5b506119cd600480360360c081101561163757600080fd5b810190808035906020019064010000000081111561165457600080fd5b82018360208201111561166657600080fd5b8035906020019184600183028401116401000000008311171561168857600080fd5b91908080601f016020809104026020016040519081016040528093929190818152602001838380828437600081840152601f19601f820116905080830192505050505050509192919290803590602001906401000000008111156116eb57600080fd5b8201836020820111156116fd57600080fd5b8035906020019184600183028401116401000000008311171561171f57600080fd5b91908080601f016020809104026020016040519081016040528093929190818152602001838380828437600081840152601f19601f8201169050808301925050505050505091929192908035906020019064010000000081111561178257600080fd5b82018360208201111561179457600080fd5b803590602001918460018302840111640100000000831117156117b657600080fd5b91908080601f016020809104026020016040519081016040528093929190818152602001838380828437600081840152601f19601f8201169050808301925050505050505091929192908035906020019064010000000081111561181957600080fd5b82018360208201111561182b57600080fd5b8035906020019184600183028401116401000000008311171561184d57600080fd5b91908080601f016020809104026020016040519081016040528093929190818152602001838380828437600081840152601f19601f820116905080830192505050505050509192919290803590602001906401000000008111156118b057600080fd5b8201836020820111156118c257600080fd5b803590602001918460018302840111640100000000831117156118e457600080fd5b91908080601f016020809104026020016040519081016040528093929190818152602001838380828437600081840152601f19601f8201169050808301925050505050505091929192908035906020019064010000000081111561194757600080fd5b82018360208201111561195957600080fd5b8035906020019184600183028401116401000000008311171561197b57600080fd5b91908080601f016020809104026020016040519081016040528093929190818152602001838380828437600081840152601f19601f820116905080830192505050505050509192919290505050613a35565b005b3480156119db57600080fd5b50611d88600480360360c08110156119f257600080fd5b8101908080359060200190640100000000811115611a0f57600080fd5b820183602082011115611a2157600080fd5b80359060200191846001830284011164010000000083111715611a4357600080fd5b91908080601f016020809104026020016040519081016040528093929190818152602001838380828437600081840152601f19601f82011690508083019250505050505050919291929080359060200190640100000000811115611aa657600080fd5b820183602082011115611ab857600080fd5b80359060200191846001830284011164010000000083111715611ada57600080fd5b91908080601f016020809104026020016040519081016040528093929190818152602001838380828437600081840152601f19601f82011690508083019250505050505050919291929080359060200190640100000000811115611b3d57600080fd5b820183602082011115611b4f57600080fd5b80359060200191846001830284011164010000000083111715611b7157600080fd5b91908080601f016020809104026020016040519081016040528093929190818152602001838380828437600081840152601f19601f82011690508083019250505050505050919291929080359060200190640100000000811115611bd457600080fd5b820183602082011115611be657600080fd5b80359060200191846001830284011164010000000083111715611c0857600080fd5b91908080601f016020809104026020016040519081016040528093929190818152602001838380828437600081840152601f19601f82011690508083019250505050505050919291929080359060200190640100000000811115611c6b57600080fd5b820183602082011115611c7d57600080fd5b80359060200191846001830284011164010000000083111715611c9f57600080fd5b91908080601f016020809104026020016040519081016040528093929190818152602001838380828437600081840152601f19601f82011690508083019250505050505050919291929080359060200190640100000000811115611d0257600080fd5b820183602082011115611d1457600080fd5b80359060200191846001830284011164010000000083111715611d3657600080fd5b91908080601f016020809104026020016040519081016040528093929190818152602001838380828437600081840152601f19601f820116905080830192505050505050509192919290505050613e7c565b005b348015611d9657600080fd5b50611dc360048036036020811015611dad57600080fd5b81019080803590602001909291905050506142a3565b6040518088815260200180602001806020018060200180602001806020018060200187810387528d818151815260200191508051906020019080838360005b83811015611e1d578082015181840152602081019050611e02565b50505050905090810190601f168015611e4a5780820380516001836020036101000a031916815260200191505b5087810386528c818151815260200191508051906020019080838360005b83811015611e83578082015181840152602081019050611e68565b50505050905090810190601f168015611eb05780820380516001836020036101000a031916815260200191505b5087810385528b818151815260200191508051906020019080838360005b83811015611ee9578082015181840152602081019050611ece565b50505050905090810190601f168015611f165780820380516001836020036101000a031916815260200191505b5087810384528a818151815260200191508051906020019080838360005b83811015611f4f578082015181840152602081019050611f34565b50505050905090810190601f168015611f7c5780820380516001836020036101000a031916815260200191505b50878103835289818151815260200191508051906020019080838360005b83811015611fb5578082015181840152602081019050611f9a565b50505050905090810190601f168015611fe25780820380516001836020036101000a031916815260200191505b50878103825288818151815260200191508051906020019080838360005b8381101561201b578082015181840152602081019050612000565b50505050905090810190601f1680156120485780820380516001836020036101000a031916815260200191505b509d505050505050505050505050505060405180910390f35b60008054600181600116156101000203166002900480601f0160208091040260200160405190810160405280929190818152602001828054600181600116156101000203166002900480156120f75780601f106120cc576101008083540402835291602001916120f7565b820191906000526020600020905b8154815290600101906020018083116120da57829003601f168201915b505050505081565b60035481565b60045481565b6000865111151561211b57600080fd5b6000855111151561212b57600080fd5b6001600081548092919060010191905055506101206040519081016040528060015481526020018781526020018681526020018581526020018481526020018381526020018281526020013373ffffffffffffffffffffffffffffffffffffffff168152602001600115158152506006600060015481526020019081526020016000206000820151816000015560208201518160010190805190602001906121d4929190614675565b5060408201518160020190805190602001906121f1929190614675565b50606082015181600301908051906020019061220e929190614675565b50608082015181600401908051906020019061222b929190614675565b5060a0820151816005019080519060200190612248929190614675565b5060c0820151816006019080519060200190612265929190614675565b5060e08201518160070160006101000a81548173ffffffffffffffffffffffffffffffffffffffff021916908373ffffffffffffffffffffffffffffffffffffffff1602179055506101008201518160070160146101000a81548160ff0219169083151502179055509050507f918774abefc1c8609c701e0d5ddcf5afa30284731b0b6b7e6c43e42cb0b3a5f2600154878787878787336001604051808a81526020018060200180602001806020018060200180602001806020018973ffffffffffffffffffffffffffffffffffffffff1673ffffffffffffffffffffffffffffffffffffffff1681526020018815151515815260200187810387528f818151815260200191508051906020019080838360005b83811015612394578082015181840152602081019050612379565b50505050905090810190601f1680156123c15780820380516001836020036101000a031916815260200191505b5087810386528e818151815260200191508051906020019080838360005b838110156123fa5780820151818401526020810190506123df565b50505050905090810190601f1680156124275780820380516001836020036101000a031916815260200191505b5087810385528d818151815260200191508051906020019080838360005b83811015612460578082015181840152602081019050612445565b50505050905090810190601f16801561248d5780820380516001836020036101000a031916815260200191505b5087810384528c818151815260200191508051906020019080838360005b838110156124c65780820151818401526020810190506124ab565b50505050905090810190601f1680156124f35780820380516001836020036101000a031916815260200191505b5087810383528b818151815260200191508051906020019080838360005b8381101561252c578082015181840152602081019050612511565b50505050905090810190601f1680156125595780820380516001836020036101000a031916815260200191505b5087810382528a818151815260200191508051906020019080838360005b83811015612592578082015181840152602081019050612577565b50505050905090810190601f1680156125bf5780820380516001836020036101000a031916815260200191505b509f5050505050505050505050505050505060405180910390a1505050505050565b600084511115156125f157600080fd5b6000835111151561260157600080fd5b6000825111151561261157600080fd5b6000815111151561262157600080fd5b60026000815480929190600101919050555060a060405190810160405280600254815260200185815260200184815260200183815260200182815250600760006002548152602001908152602001600020600082015181600001556020820151816001019080519060200190612698929190614675565b5060408201518160020190805190602001906126b5929190614675565b5060608201518160030190805190602001906126d2929190614675565b5060808201518160040190805190602001906126ef929190614675565b509050507f2b093ce5554853c2062221a5f378e7465205c6a307467f330ded4f312b88eecb600254858585856040518086815260200180602001806020018060200180602001858103855289818151815260200191508051906020019080838360005b8381101561276d578082015181840152602081019050612752565b50505050905090810190601f16801561279a5780820380516001836020036101000a031916815260200191505b50858103845288818151815260200191508051906020019080838360005b838110156127d35780820151818401526020810190506127b8565b50505050905090810190601f1680156128005780820380516001836020036101000a031916815260200191505b50858103835287818151815260200191508051906020019080838360005b8381101561283957808201518184015260208101905061281e565b50505050905090810190601f1680156128665780820380516001836020036101000a031916815260200191505b50858103825286818151815260200191508051906020019080838360005b8381101561289f578082015181840152602081019050612884565b50505050905090810190601f1680156128cc5780820380516001836020036101000a031916815260200191505b50995050505050505050505060405180910390a150505050565b600a602052806000526040600020600091509050806000015490806001018054600181600116156101000203166002900480601f0160208091040260200160405190810160405280929190818152602001828054600181600116156101000203166002900480156129985780601f1061296d57610100808354040283529160200191612998565b820191906000526020600020905b81548152906001019060200180831161297b57829003601f168201915b505050505090806002018054600181600116156101000203166002900480601f016020809104026020016040519081016040528092919081815260200182805460018160011615610100020316600290048015612a365780601f10612a0b57610100808354040283529160200191612a36565b820191906000526020600020905b815481529060010190602001808311612a1957829003601f168201915b505050505090806003018054600181600116156101000203166002900480601f016020809104026020016040519081016040528092919081815260200182805460018160011615610100020316600290048015612ad45780601f10612aa957610100808354040283529160200191612ad4565b820191906000526020600020905b815481529060010190602001808311612ab757829003601f168201915b505050505090806004018054600181600116156101000203166002900480601f016020809104026020016040519081016040528092919081815260200182805460018160011615610100020316600290048015612b725780601f10612b4757610100808354040283529160200191612b72565b820191906000526020600020905b815481529060010190602001808311612b5557829003601f168201915b505050505090806005018054600181600116156101000203166002900480601f016020809104026020016040519081016040528092919081815260200182805460018160011615610100020316600290048015612c105780601f10612be557610100808354040283529160200191612c10565b820191906000526020600020905b815481529060010190602001808311612bf357829003601f168201915b505050505090806006018054600181600116156101000203166002900480601f016020809104026020016040519081016040528092919081815260200182805460018160011615610100020316600290048015612cae5780601f10612c8357610100808354040283529160200191612cae565b820191906000526020600020905b815481529060010190602001808311612c9157829003601f168201915b5050505050905087565b6007602052806000526040600020600091509050806000015490806001018054600181600116156101000203166002900480601f016020809104026020016040519081016040528092919081815260200182805460018160011615610100020316600290048015612d6a5780601f10612d3f57610100808354040283529160200191612d6a565b820191906000526020600020905b815481529060010190602001808311612d4d57829003601f168201915b505050505090806002018054600181600116156101000203166002900480601f016020809104026020016040519081016040528092919081815260200182805460018160011615610100020316600290048015612e085780601f10612ddd57610100808354040283529160200191612e08565b820191906000526020600020905b815481529060010190602001808311612deb57829003601f168201915b505050505090806003018054600181600116156101000203166002900480601f016020809104026020016040519081016040528092919081815260200182805460018160011615610100020316600290048015612ea65780601f10612e7b57610100808354040283529160200191612ea6565b820191906000526020600020905b815481529060010190602001808311612e8957829003601f168201915b505050505090806004018054600181600116156101000203166002900480601f016020809104026020016040519081016040528092919081815260200182805460018160011615610100020316600290048015612f445780601f10612f1957610100808354040283529160200191612f44565b820191906000526020600020905b815481529060010190602001808311612f2757829003601f168201915b5050505050905085565b6006602052806000526040600020600091509050806000015490806001018054600181600116156101000203166002900480601f0160208091040260200160405190810160405280929190818152602001828054600181600116156101000203166002900480156130005780601f10612fd557610100808354040283529160200191613000565b820191906000526020600020905b815481529060010190602001808311612fe357829003601f168201915b505050505090806002018054600181600116156101000203166002900480601f01602080910402602001604051908101604052809291908181526020018280546001816001161561010002031660029004801561309e5780601f106130735761010080835404028352916020019161309e565b820191906000526020600020905b81548152906001019060200180831161308157829003601f168201915b505050505090806003018054600181600116156101000203166002900480601f01602080910402602001604051908101604052809291908181526020018280546001816001161561010002031660029004801561313c5780601f106131115761010080835404028352916020019161313c565b820191906000526020600020905b81548152906001019060200180831161311f57829003601f168201915b505050505090806004018054600181600116156101000203166002900480601f0160208091040260200160405190810160405280929190818152602001828054600181600116156101000203166002900480156131da5780601f106131af576101008083540402835291602001916131da565b820191906000526020600020905b8154815290600101906020018083116131bd57829003601f168201915b505050505090806005018054600181600116156101000203166002900480601f0160208091040260200160405190810160405280929190818152602001828054600181600116156101000203166002900480156132785780601f1061324d57610100808354040283529160200191613278565b820191906000526020600020905b81548152906001019060200180831161325b57829003601f168201915b505050505090806006018054600181600116156101000203166002900480601f0160208091040260200160405190810160405280929190818152602001828054600181600116156101000203166002900480156133165780601f106132eb57610100808354040283529160200191613316565b820191906000526020600020905b8154815290600101906020018083116132f957829003601f168201915b5050505050908060070160009054906101000a900473ffffffffffffffffffffffffffffffffffffffff16908060070160149054906101000a900460ff16905089565b60025481565b6000855111151561336f57600080fd5b6000845111151561337f57600080fd5b6000835111151561338f57600080fd5b6000825111151561339f57600080fd5b60036000815480929190600101919050555060c06040519081016040528060035481526020018681526020018581526020018481526020018381526020018281525060086000600354815260200190815260200160002060008201518160000155602082015181600101908051906020019061341c929190614675565b506040820151816002019080519060200190613439929190614675565b506060820151816003019080519060200190613456929190614675565b506080820151816004019080519060200190613473929190614675565b5060a0820151816005019080519060200190613490929190614675565b509050507f71902161f4524091766f3fe31b1c10fb6ada7a9829732aaf1655661846f51cca600354868686868660405180878152602001806020018060200180602001806020018060200186810386528b818151815260200191508051906020019080838360005b838110156135135780820151818401526020810190506134f8565b50505050905090810190601f1680156135405780820380516001836020036101000a031916815260200191505b5086810385528a818151815260200191508051906020019080838360005b8381101561357957808201518184015260208101905061355e565b50505050905090810190601f1680156135a65780820380516001836020036101000a031916815260200191505b50868103845289818151815260200191508051906020019080838360005b838110156135df5780820151818401526020810190506135c4565b50505050905090810190601f16801561360c5780820380516001836020036101000a031916815260200191505b50868103835288818151815260200191508051906020019080838360005b8381101561364557808201518184015260208101905061362a565b50505050905090810190601f1680156136725780820380516001836020036101000a031916815260200191505b50868103825287818151815260200191508051906020019080838360005b838110156136ab578082015181840152602081019050613690565b50505050905090810190601f1680156136d85780820380516001836020036101000a031916815260200191505b509b50505050505050505050505060405180910390a15050505050565b6008602052806000526040600020600091509050806000015490806001018054600181600116156101000203166002900480601f0160208091040260200160405190810160405280929190818152602001828054600181600116156101000203166002900480156137a75780601f1061377c576101008083540402835291602001916137a7565b820191906000526020600020905b81548152906001019060200180831161378a57829003601f168201915b505050505090806002018054600181600116156101000203166002900480601f0160208091040260200160405190810160405280929190818152602001828054600181600116156101000203166002900480156138455780601f1061381a57610100808354040283529160200191613845565b820191906000526020600020905b81548152906001019060200180831161382857829003601f168201915b505050505090806003018054600181600116156101000203166002900480601f0160208091040260200160405190810160405280929190818152602001828054600181600116156101000203166002900480156138e35780601f106138b8576101008083540402835291602001916138e3565b820191906000526020600020905b8154815290600101906020018083116138c657829003601f168201915b505050505090806004018054600181600116156101000203166002900480601f0160208091040260200160405190810160405280929190818152602001828054600181600116156101000203166002900480156139815780601f1061395657610100808354040283529160200191613981565b820191906000526020600020905b81548152906001019060200180831161396457829003601f168201915b505050505090806005018054600181600116156101000203166002900480601f016020809104026020016040519081016040528092919081815260200182805460018160011615610100020316600290048015613a1f5780601f106139f457610100808354040283529160200191613a1f565b820191906000526020600020905b815481529060010190602001808311613a0257829003601f168201915b5050505050905086565b60055481565b60015481565b60008651111515613a4557600080fd5b60008551111515613a5557600080fd5b60008451111515613a6557600080fd5b60008351111515613a7557600080fd5b60008251111515613a8557600080fd5b60008151111515613a9557600080fd5b60056000815480929190600101919050555060e060405190810160405280600554815260200187815260200186815260200185815260200184815260200183815260200182815250600a60006005548152602001908152602001600020600082015181600001556020820151816001019080519060200190613b18929190614675565b506040820151816002019080519060200190613b35929190614675565b506060820151816003019080519060200190613b52929190614675565b506080820151816004019080519060200190613b6f929190614675565b5060a0820151816005019080519060200190613b8c929190614675565b5060c0820151816006019080519060200190613ba9929190614675565b509050507fc6c341eaadcd5ce6a1dd918367b55b777ce628177ea4b82d731c13cdfa74d81d6005548787878787876040518088815260200180602001806020018060200180602001806020018060200187810387528d818151815260200191508051906020019080838360005b83811015613c31578082015181840152602081019050613c16565b50505050905090810190601f168015613c5e5780820380516001836020036101000a031916815260200191505b5087810386528c818151815260200191508051906020019080838360005b83811015613c97578082015181840152602081019050613c7c565b50505050905090810190601f168015613cc45780820380516001836020036101000a031916815260200191505b5087810385528b818151815260200191508051906020019080838360005b83811015613cfd578082015181840152602081019050613ce2565b50505050905090810190601f168015613d2a5780820380516001836020036101000a031916815260200191505b5087810384528a818151815260200191508051906020019080838360005b83811015613d63578082015181840152602081019050613d48565b50505050905090810190601f168015613d905780820380516001836020036101000a031916815260200191505b50878103835289818151815260200191508051906020019080838360005b83811015613dc9578082015181840152602081019050613dae565b50505050905090810190601f168015613df65780820380516001836020036101000a031916815260200191505b50878103825288818151815260200191508051906020019080838360005b83811015613e2f578082015181840152602081019050613e14565b50505050905090810190601f168015613e5c5780820380516001836020036101000a031916815260200191505b509d505050505050505050505050505060405180910390a1505050505050565b60008651111515613e8c57600080fd5b60008551111515613e9c57600080fd5b60008351111515613eac57600080fd5b60008251111515613ebc57600080fd5b60046000815480929190600101919050555060e060405190810160405280600454815260200187815260200186815260200185815260200184815260200183815260200182815250600960006004548152602001908152602001600020600082015181600001556020820151816001019080519060200190613f3f929190614675565b506040820151816002019080519060200190613f5c929190614675565b506060820151816003019080519060200190613f79929190614675565b506080820151816004019080519060200190613f96929190614675565b5060a0820151816005019080519060200190613fb3929190614675565b5060c0820151816006019080519060200190613fd0929190614675565b509050507fdfe5c86db4c5766dcde93dada9eed5a62ed74f48b088d9d9e9bc515a4e6857bb6004548787878787876040518088815260200180602001806020018060200180602001806020018060200187810387528d818151815260200191508051906020019080838360005b8381101561405857808201518184015260208101905061403d565b50505050905090810190601f1680156140855780820380516001836020036101000a031916815260200191505b5087810386528c818151815260200191508051906020019080838360005b838110156140be5780820151818401526020810190506140a3565b50505050905090810190601f1680156140eb5780820380516001836020036101000a031916815260200191505b5087810385528b818151815260200191508051906020019080838360005b83811015614124578082015181840152602081019050614109565b50505050905090810190601f1680156141515780820380516001836020036101000a031916815260200191505b5087810384528a818151815260200191508051906020019080838360005b8381101561418a57808201518184015260208101905061416f565b50505050905090810190601f1680156141b75780820380516001836020036101000a031916815260200191505b50878103835289818151815260200191508051906020019080838360005b838110156141f05780820151818401526020810190506141d5565b50505050905090810190601f16801561421d5780820380516001836020036101000a031916815260200191505b50878103825288818151815260200191508051906020019080838360005b8381101561425657808201518184015260208101905061423b565b50505050905090810190601f1680156142835780820380516001836020036101000a031916815260200191505b509d505050505050505050505050505060405180910390a1505050505050565b6009602052806000526040600020600091509050806000015490806001018054600181600116156101000203166002900480601f0160208091040260200160405190810160405280929190818152602001828054600181600116156101000203166002900480156143555780601f1061432a57610100808354040283529160200191614355565b820191906000526020600020905b81548152906001019060200180831161433857829003601f168201915b505050505090806002018054600181600116156101000203166002900480601f0160208091040260200160405190810160405280929190818152602001828054600181600116156101000203166002900480156143f35780601f106143c8576101008083540402835291602001916143f3565b820191906000526020600020905b8154815290600101906020018083116143d657829003601f168201915b505050505090806003018054600181600116156101000203166002900480601f0160208091040260200160405190810160405280929190818152602001828054600181600116156101000203166002900480156144915780601f1061446657610100808354040283529160200191614491565b820191906000526020600020905b81548152906001019060200180831161447457829003601f168201915b505050505090806004018054600181600116156101000203166002900480601f01602080910402602001604051908101604052809291908181526020018280546001816001161561010002031660029004801561452f5780601f106145045761010080835404028352916020019161452f565b820191906000526020600020905b81548152906001019060200180831161451257829003601f168201915b505050505090806005018054600181600116156101000203166002900480601f0160208091040260200160405190810160405280929190818152602001828054600181600116156101000203166002900480156145cd5780601f106145a2576101008083540402835291602001916145cd565b820191906000526020600020905b8154815290600101906020018083116145b057829003601f168201915b505050505090806006018054600181600116156101000203166002900480601f01602080910402602001604051908101604052809291908181526020018280546001816001161561010002031660029004801561466b5780601f106146405761010080835404028352916020019161466b565b820191906000526020600020905b81548152906001019060200180831161464e57829003601f168201915b5050505050905087565b828054600181600116156101000203166002900490600052602060002090601f016020900481019282601f106146b657805160ff19168380011785556146e4565b828001600101855582156146e4579182015b828111156146e35782518255916020019190600101906146c8565b5b5090506146f191906146f5565b5090565b61471791905b808211156147135760008160009055506001016146fb565b5090565b9056fea165627a7a7230582079dc1b5f5e33f4ef4f23acbd38bbda37cfa5dd0d928151c47bfc33b0f7efd0fe0029",
  "source": "pragma solidity ^0.5.0;\n\ncontract Hrm {\n    string public name;\n    uint public employeeCount = 0;\n    uint public leaveCount = 0;\n     uint public payrollCount = 0;\n      uint public recruitmentCount = 0;\n       uint public eretirementCount = 0;\n\n    mapping(uint => Employee) public employees;\n    mapping(uint => Leave) public leaveRecords;\n     mapping(uint => Payroll) public payrollRecords;\n      mapping(uint => Recruitment) public recruitmentRecords;\n       mapping(uint => Eretirement) public eretirementRecords;\n\n\n\n    struct Employee {\n\n        uint id;\n        string firstname;\n        string lastname;\n        string phonenumber;\n        string location;\n        string position;\n        string department;\n        address owner;\n        bool isactive;\n    }\n\n    struct Leave {\n\n        uint id;\n        string employeename;\n        string leavetype;\n        string startdate;\n        string enddate;\n    }\n\n\n    struct Payroll\n    {\n        uint id;\n        string employeename;\n        string employeelevel;\n        string amount;\n        string benefitsamount;\n        string payday;\n    }\n\n     struct Recruitment\n    {\n        uint id;\n        string fullname;\n        string position;\n        string age;\n        string homeaddress;\n        string currentcompany;\n        string currentposition;\n    }\n\n    struct Eretirement\n    {\n        uint id;\n        string employeename;\n        string workstartdate;\n        string workenddate;\n        string lastlevel;\n        string benefitsamount;\n        string lastworkdate;\n    }\n\n    event EmployeeCreated(\n\n        uint id,\n        string firstname,\n        string lastname,\n        string phonenumber,\n        string location,\n        string position,\n        string department,\n        address owner,\n        bool isactive\n    );\n\n    event LeaveCreated (\n\n        uint id,\n        string employeename,\n        string leavetype,\n        string startdate,\n        string enddate\n    );\n\n     event PayrollCreated (\n\n        uint id,\n        string employeename,\n        string employeelevel,\n        string amount,\n        string benefitsamount,\n        string payday\n    );\n\n     event RecruitmentCreated (\n\n        uint id,\n        string fullname,\n        string position,\n        string age,\n        string homeaddress,\n        string currentcompany,\n        string currentposition\n    );\n\n    event ERetirementCreated (\n\n        uint id,\n        string employeename,\n        string workstartdate,\n        string workenddate,\n        string lastlevel,\n        string benefitsamount,\n        string lastworkdate\n    );\n\n    \n\n    constructor() public {\n        name = \"HRM application\";\n    }\n\n\n    //SMART CONTRACT FUNCTION EMPLOYEE - smart contract function to manage employee\n\n    function createEmployee(string memory _firstname,string memory _lastname,\n    string memory _phonenumber,string memory _location,string memory _position,\n    string memory _department) public {\n\n        // Require a valid firstname\n        require(bytes(_firstname).length > 0);\n\n        // Require a valid lastname\n        require(bytes(_lastname).length > 0);\n\n        // Increment employee count\n        employeeCount ++;\n\n        // Create the employee\n        employees[employeeCount] = Employee(employeeCount, _firstname,_lastname,_phonenumber,\n        _location, _position, _department, msg.sender, true);\n\n        // Trigger an event\n        emit EmployeeCreated(employeeCount, _firstname,_lastname,_phonenumber,\n        _location, _position, _department, msg.sender, true);\n    }\n\n    //END OF EMPLOYEE SMART CONTRACT\n\n\n    //SMART CONTRACT FUNCTION LEAVE smart contract function to manage leave records\n\n     function createLeave(string memory _employeename,string memory _leavetype,\n    string memory _startdate,string memory _enddate) public {\n\n        // Require a valid employee name\n        require(bytes(_employeename).length > 0);\n\n        // Require a valid leave type\n        require(bytes(_leavetype).length > 0);\n\n         // Require a valid start date\n        require(bytes(_startdate).length > 0);\n\n        // Require a valid end date\n        require(bytes(_enddate).length > 0);\n\n        // Increase the leave count\n        leaveCount ++;\n\n        // Create the leave record\n        leaveRecords[leaveCount] = Leave(leaveCount, _employeename,_leavetype,_startdate,\n        _enddate);\n        \n        // Trigger an event to note leave creation to listeners\n        emit LeaveCreated(leaveCount, _employeename,_leavetype,_startdate,\n        _enddate);\n    }\n\n    //END OF LEAVE SMART CONTRACT\n\n\n\n    //SMART CONTRACT FUNCTION PAYROLL smart contract function to manage payroll records\n\n     function createPayroll(string memory _employeename,string memory _employeelevel, string memory _amount, \n     string memory _benefitsamount, string memory _payday) public {\n        \n        // Require a valid employee name\n        require(bytes(_employeename).length > 0);\n\n        // Require a valid employee level\n        require(bytes(_employeelevel).length > 0);\n\n        // Require a valid amount\n        require(bytes(_amount).length > 0);\n\n        // Require a valid benefit amount\n        require(bytes(_benefitsamount).length > 0);\n\n\n        // Increase the payroll count\n        payrollCount ++;\n\n        // Create the payroll record\n        payrollRecords[payrollCount] = Payroll(payrollCount, _employeename,_employeelevel,_amount,\n        _benefitsamount,_payday);\n\n        emit PayrollCreated(payrollCount, _employeename,_employeelevel,_amount,\n        _benefitsamount,_payday);\n        \n    }\n\n    //END OF  payroll CONTRACT\n\n\n\n    //SMART CONTRACT FUNCTION RECRUITMENT smart contract function to manage recruitment records\n\n     function createRecruitment(string memory _fullname,string memory _position,string memory _age,\n     string memory _homeaddress,string memory _currentcompany,string memory _currentposition) public {\n        \n        // validations\n\n        // Require a valid fullname\n        require(bytes(_fullname).length > 0);\n\n        // Require a valid Job position\n        require(bytes(_position).length > 0);\n\n        // Require a valid homeaddress\n        require(bytes(_homeaddress).length > 0);\n\n        // Require a valid current company\n        require(bytes(_currentcompany).length > 0);\n\n        // Increase the recruitment count\n        recruitmentCount ++;\n        // Create the recruitment record\n        recruitmentRecords[recruitmentCount] = Recruitment(recruitmentCount, _fullname,_position,_age,\n        _homeaddress,_currentcompany,_currentposition);\n        // Trigger an event\n        emit RecruitmentCreated(recruitmentCount, _fullname,_position,_age,\n        _homeaddress, _currentcompany, _currentposition);\n        \n    }\n\n    //END OF Recruitment  CONTRACT\n\n\n    //SMART CONTRACT FUNCTION EXIT AND RETIREMENT smart contract function to manage eretirement records\n     function createEretirement(string memory _employeename,string memory _workstartdate,\n     string memory _workendate, string memory _lastlevel, string memory _benefitsamount,\n    string memory _lastworkdate) public { \n         // Require a valid employee fullname\n        require(bytes(_employeename).length > 0);\n\n        // Require a valid start date\n        require(bytes(_workstartdate).length > 0);\n\n        // Require a valid work end date\n        require(bytes(_workendate).length > 0);\n\n        // Require a valid level\n        require(bytes(_lastlevel).length > 0);\n\n        // Require a valid benefits amount\n        require(bytes(_benefitsamount).length > 0);\n\n        // Require a valid last work date \n        require(bytes(_lastworkdate).length > 0);\n\n        // Increase the eretirement count\n        eretirementCount ++;\n        // Create the eretirment record\n        eretirementRecords[eretirementCount] = Eretirement(eretirementCount,_employeename,_workstartdate,\n         _workendate,_lastlevel,_benefitsamount,_lastworkdate);\n\n         emit ERetirementCreated(eretirementCount, _employeename,_workstartdate,_workendate,\n        _lastlevel, _benefitsamount, _lastworkdate);\n        \n    }\n\n    //END OF ERetirement  CONTRACT\n    \n}",
  "sourcePath": "/Users/DianaO/Hyperledger/TestHRM/hrmprototype/src/contracts/Hrm.sol",
  "compiler": {
    "name": "solc",
    "version": "0.5.0+commit.1d4f565a.Emscripten.clang"
  },
  "schemaVersion": "3.0.2",
  "updatedAt": "2023-09-23T14:41:03.871Z",
  "devdoc": {
    "methods": {}
  },
  "userdoc": {
    "methods": {}
  }
}